:060000000A128A110C280F
:10000800FE00030EFA000A08FB000A128A11CD2A24
:100018000A128A110F2883133D30FD000430FE00B8
:10002800ED30FF00313084000A128A11CB240A1205
:100038008A112030840031300A128A11F9240A12F8
:100048008A11F001F101F201F301F401F5018301D4
:100058000A128A11102AF7000E3077020318352881
:10006800362839280530F60032290E307702031C6D
:100078003E283F2848281B30770203184428452883
:1000880048280630F60032291B307702031C4D2819
:100098004E28572828307702031853285428572801
:1000A8000730F600322928307702031C5C285D28C7
:1000B80066283530770203186228632866280830D6
:1000C800F600322935307702031C6B286C28752816
:1000D8004230770203187128722875280930F60013
:1000E800322942307702031C7A287B2884284F3033
:1000F800770203188028812884280A30F6003229DC
:100108004F307702031C89288A2893285C307702AD
:1001180003188F28902893280B30F60032295C307A
:100128007702031C98289928A228693077020318B7
:100138009E289F28A2280C30F600322969307702C1
:10014800031CA728A828B128763077020318AD2801
:10015800AE28B1280D30F600322976307702031C1C
:10016800B628B728C028833077020318BC28BD28D2
:10017800C0280E30F600322983307702031CC528C8
:10018800C628CF28903077020318CB28CC28CF2850
:100198000F30F600322990307702031CD428D52876
:1001A800DE289D3077020318DA28DB28DE28103095
:1001B800F60032299D307702031CE328E428ED2855
:1001C800AA3077020318E928EA28ED281130F6004A
:1001D8003229AA307702031CF228F328FC28B7300A
:1001E80077020318F828F928FC281230F60032297B
:1001F800C4307702031C012902290B29D130770268
:100208000318072908290B291330F6003229D130A1
:100218007702031C102911291A29DE3077020318E6
:10022800162917291A291430F6003229DE307702E8
:10023800031C1F2920292929EB30770203182529B7
:10024800262929291530F6003229F8307702031CAF
:100258002E292F2932291630F6003229760808006F
:1002680083120313061E39293A2941297008013ED1
:10027800F000061E402941293D29861E44294529AA
:100288004C297008FF3EF000861E4B294C2948294E
:1002980004307002031C5129522954290330F000FC
:1002A80070088900061959295A295C29A601A60A45
:1002B8000513061D60296129B0292603031D652938
:1002C8006629B029051785131F1470083A3E840063
:1002D80083130008BD0015080A128A1183240A1224
:1002E8008A117008373E84008313000883120313B1
:1002F800BD001B080A128A1183240A128A11700889
:10030800343E84008313000883120313BD0075086C
:100318000A128A1183240A128A117008313E840055
:100328008313000883120313BD002E080A128A11D2
:1003380083240A128A11033083120313C1008A30FE
:10034800C0005530BF00BF0BA729C00BA729C10BA0
:10035800A72983120313A6018619B329B429B6293C
:10036800A501A50A8513861DBA29BB290F2A2503CD
:10037800031DBF29C0290F2A051385171F107008F0
:100388003A3E8400831300080A128A11DA240A12FA
:100398008A1183120313A3007008373E8400831365
:1003A80000080A128A11DA240A128A118312031326
:1003B800A2007008343E8400831300080A128A11D0
:1003C800DA240A128A1183120313A1007008313E3D
:1003D8008400831300080A128A11DA240A128A1187
:1003E80083120313A0002308950022089B0021080C
:1003F800F5002008AE00A501023083120313C100E6
:100408000430C000B930BF00BF0B082AC00B082A4F
:10041800C10B082A0F2A08000A128A1165230A123A
:100428008A11831203139F14061C1B2A1C2A232AD1
:100438007108013EF1000618222A232A1F2A861C69
:10044800262A272A2E2A7108FF3EF10086182D2A0F
:100458002E2A2A2A04307102031C332A342A362A07
:100468000330F1007108031D3A2A3B2A3D2AF101A5
:10047800F10A7103031D412A422A452A01308800E6
:100488001F1402307106031D4A2A4B2A522A0230D1
:1004980088000A128A1134210A128A11033071065F
:1004A800031D572A582A622A03308312031388002F
:1004B8001F100A128A11F1230A128A110F308312AF
:1004C8000313C200C20B662A692A831203139F18FA
:1004D8006E2A6F2A182AA62A0F3083120313C20025
:1004E800C20B742A772A831203131F08C3390438EE
:1004F8009F00BF2A0F3083120313C200C20B822A47
:10050800852A831203131F08C33908389F00BF2A9E
:100518000F3083120313C200C20B902A932A83124E
:1005280003131F08C3390C389F00BF2A0F308312EA
:100538000313C200C20B9E2AA12AC33083120313DD
:100548009F05BF2A1F0CC200420C0F39C300C4010B
:100558004408003A0319B12ABF2A4308003A03198C
:10056800702A013A03197E2A033A03198C2A013AA0
:1005780003199A2ABF2A0F3083120313C200C20B31
:10058800C32AC62A831203139F14182A0A128A112F
:100598000C28831203130C1FD22AD32A3C2B1F0CBE
:1005A800F800780C0F39003A031DDB2ADC2AF42AFC
:1005B8001E08F8000310780C233E950097121E08B9
:1005C800F80007300310F80CFF3E031DE62A7808F0
:1005D800F900F90E17087906EF3979069700392BD3
:1005E8001F0CF800780C0F39013A031DFC2AFD2A6C
:1005F800152B1E08F8000310780C233E9B009D1253
:100608001E08F80007300310F80CFF3E031D072BE7
:100618007808F900F90E1D087906EF3979069D006A
:10062800392B1F0CF800780C0F39023A031D1D2BCB
:100638001E2B262B1E080A128A112F200A128A1135
:10064800F500392B1F0CF800780C0F39033A031DFD
:100658002E2B2F2B392B1E080A128A112F200A1233
:100668008A1183120313AE00392B831203130C1360
:100678000B1D3F2B402B5B2B0130F8007808F2074D
:1006880072087506031D492B4A2B4B2B87117208DC
:100698002E06031D502B512B522B071228307206A1
:1006A800031D572B582B5B2B87150716F201CE30ED
:1006B80081000B117B088A007A0E8300FE0E7E0EE5
:1006C80009000F3083160317880089010F3083163D
:1006D80003138500880189010730860081137F3064
:1006E8009500871107128312031389018801860177
:1006F80085018701831603130F088F3960388F002F
:100708000F14811201128111011181100110CE30D4
:100718008312031381000B118B161F083F39803891
:100728009F00C3309F05831603139F131F129F1248
:100738000F3083120313BD00BD0BA02BA32B831610
:100748000313071587149B3092003F30831203135D
:1007580097051708F0390C3897001D08F0390C3840
:100768009D000F309500CF3097050F309B001D126C
:100778008C100330920412158C1CC32BC42BC02B75
:100788008C108316031307118710831203138C121E
:10079800831603138C12831203130C13831603138B
:1007A8000C170B178B170F3083120313BD00BD0BEB
:1007B800DB2BDE2B831203131F140C308316031359
:1007C80099001812831203139817831603139816A7
:1007D800831203130C1218160800831203138C1EBD
:1007E800F62BF72BF12B7408031DFB2BFC2B062C87
:1007F80001300A128A11A6240A128A1183120313DD
:100808001A08F4007403031D0A2C0B2C0D2CF30199
:10081800F30A02307406031D122C132C152C023017
:10082800F30003307406031D1A2C1B2C1D2C0330F7
:10083800F30004307406031D222C232C252C0430CD
:10084800F3007303031D292C2A2C2F2C1A08AD0042
:100858002D089500F40102307306031D342C352C45
:100868003A2C1A08AC002C089B00F40103307306DC
:10087800031D3F2C402C452C1A08AB002B08F50013
:10088800F40104307306031D4A2C4B2C502C1A0813
:10089800AA002A08AE00F401080004308A000408FF
:1008A800840A8207003445347334633472346934FB
:1008B80062346134203465346C3420346E34C3348B
:1008C800BA346D34653472346F342034643465342A
:1008D8006C34203470346F34743465346E3463345B
:1008E80069346F346D346534743472346F34203441
:1008F80061342034753473346134723400348312B3
:100908000313BE003D08831203178D0083120313DF
:100918003E08831203178C00831603178C130C15DB
:100928008B1355308D00AA308D008C14831203135D
:100938000D1E9F2CA02C9A2C0D128B1783160317B3
:100948000C11080083120313BE00BA2C0C1EAD2C28
:10095800AE2CAA2C3E0884000A128A1151240A12CD
:100968008A1199000130BD003D08BE073E08840089
:100978000A128A1151240A128A11003A031DC52C41
:10098800C62CAA2C08007E088A007F0882000A125A
:100998008A11C7240A128A118000840A04087D0675
:1009A80003190034FF0A0319FE0ACB2C8312031320
:1009B800BD003D08831203178D00831603178C139F
:1009C8000C14831203170C0883120313BE003E088D
:1009D80008000C340D340E3409340A340B34063450
:1009E8000734083403340434053464008001840A6D
:0A09F8000406031900340406FA2C6B
:08400000FF3FFF3FFF3FFF3FC0
:04400E00D420FF3F7C
:00000001FF
